:100000000C9446000C9465000C9465000C946500FB
:100010000C9465000C947A030C943E030C946500D8
:100020000C9465000C9465000C9465000C946500BC
:100030000C9465000C9465000C9465000C946500AC
:100040000C94F90F0C9465000C9465000C946500F9
:100050000C9465000C9465000C9465000C9465008C
:100060000C9465000C9465000C9465000C9465007C
:100070000C9465000C9465000C9465000C9465006C
:100080000C9465000C9465000C94650011241FBE4F
:10009000CFEFD0E1DEBFCDBF12E0A0E0B1E0EEE4F3
:1000A000F7E200E00BBF02C007900D92AA31B10742
:1000B000D9F717E0AAE1B2E001C01D92A23AB10758
:1000C000E1F70E94E9020C94A5130C9400001BB800
:1000D00088E08AB986E0809395001092900087E6C8
:1000E00089B908955D9BFECF8CB908955F9BFECFC3
:1000F0008CB10895FC018081882339F031965D9B95
:10010000FECF8CB980818823C9F70895DC0170E0A7
:100110006115710591F0EC91EE2379F080E090E0AB
:100120005D9BFECFECB901968617970734F4FD016D
:10013000E80FF91FE081EE2399F70895482F6AE050
:100140000E947910282F0E947910392F822F0E9447
:100150007910882389F4332311F4882321F05D9BDF
:10016000FECF305D3CB95D9BFECF842F6AE00E94DC
:100170007910905D9CB908955D9BFECF805D8CB930
:100180008053E9CF80E389BF8FE08ABF0895F89458
:1001900084E083BF80E382BF81E087BF78940895C5
:1001A0001ABA1BBA18BA17BA15BA8FEF84BB12BAAB
:1001B00081BB13B812B810926100109262001092C5
:1001C000650083E08093640008950895882351F0CA
:1001D00090E00F920F900F920F900F920F909F5FF1
:1001E0009817B8F308950F931F93082F882381F071
:1001F00010E08AEF0E94E6008AEF0E94E6008AEF94
:100200000E94E6008AEF0E94E6001F5F101788F345
:100210001F910F91089582E00E94F30008950F93BB
:100220001F93082F0E940B01802F807F82BB909A22
:10023000919881E00E94E600929A81E00E94E60097
:10024000929810E002951295107F1027007F1027DA
:1002500002BB909A919881E00E94E600929A81E018
:100260000E94E60092981F910F910895CF93DF931B
:10027000FC018081882339F0EF0121960E940F0153
:1002800088818823D1F7DF91CF9108950F931F9331
:10029000082F0E940B01802F807F82BB909891983D
:1002A00081E00E94E600929A81E00E94E600929826
:1002B00010E002951295107F1027007F102702BBD7
:1002C0009098919881E00E94E600929A81E00E94C5
:1002D000E60092981F910F9108958FEF81BB92983D
:1002E0008FE00E94F30080E20E94460185E00E94B8
:1002F000F30080E20E94460184E60E94E60080E26C
:100300000E94460188E20E9446018CE00E9446015C
:1003100081E00E94460186E00E94460108958FEF29
:100320000E948C0D08951F93DF93CF930F92CDB74A
:10033000DEB78FEF0E948C0D80912F0290913002DA
:1003400060E070E0AE014F5F5F4F0E946F09109256
:100350001B0210921A0210922C0280E011E007C0DA
:1003600080912C028F5F80932C028D33D0F4809388
:100370001C0284E60E94F30080912C028C3371F100
:1003800080911B02833091F080911A028D3041F7E9
:1003900010931A0280912C028F5F80932C028D3370
:1003A00030F30F90CF91DF911F91089510921B02AF
:1003B00085E00E948C0D88EC0E94F30080912F0252
:1003C000909130020E94370A88EC0E94F30084E08A
:1003D0000E948C0D88EC0E94F300D6CF10922C0264
:1003E00084E60E94F30080911B028F5F80931B02C2
:1003F000C9CF0F931F93DF93CF930F92CDB7DEB783
:100400008FEF0E948C0D809128029091290260E06C
:1004100070E08E010F5F1F4FA8010E94820C84E6DE
:100420000E94F30080912F029091300260E070E012
:10043000A8010E946F0984E60E94F30010921C023A
:1004400010921B0210921A0201E00CC080911B0254
:100450008330E9F08C3341F190911A029D3071F1B3
:10046000833081F180911C028F5F80931C0284E6AF
:100470000E94F30080911C028C3341F710921C0201
:1004800080911B028F5F80931B02833019F780914C
:100490002F02909130020E94370A84E60E94F300F6
:1004A00080911B028C33C1F610921B0290911A02AC
:1004B0009F5F90931A0280E09D3091F600931A029C
:1004C000833081F680912802909129020E94CB0C02
:1004D000C9CFEF92FF920F931F93DF93CF93CDB7C6
:1004E000DEB760970FB6F894DEBF0FBECDBFF894AD
:1004F00087E083BF11E017BF83E882BF78940E9432
:10050000BE04F89484E083BF80E382BF17BF789471
:1005100089EF91E065E372E047E354E025E00E9453
:10052000EB0C83E991E066E372E047EB54E024E0F2
:100530000E94EB0C8FE891E067E372E047E355E03F
:1005400023E00E94EB0C8E010F5F1F4F20E0E22E94
:1005500021E0F22E1092C8051092C9051092CA052A
:100560001092CB0580E060E041E020E030E00E94A6
:100570002B0E8DB79EB70A970FB6F8949EBF0FBE8D
:100580008DBFEDB7FEB73196ADB7BEB712961C93CF
:100590000E931197F382E28280911A02848315826E
:1005A00080911B028683178280911C0280871186AE
:1005B0000E94CE108DB79EB70A960FB6F8949EBFD4
:1005C0000FBE8DBF80EC0E944601C8010E9436011B
:1005D000C1CFDF93CF930F92CDB7DEB70E94D0008B
:1005E0000E946D0180E389BF8FE08ABF0E941404DE
:1005F00080E80E9446018DE091E00E94360181E092
:1006000090E00E945B0C909329028093280282E084
:10061000BE016F5F7F4F0E94B008909330028093BD
:100620002F0281E090E00E945B0C90933202809355
:10063000310280E091E00E945B0C90933905809339
:10064000380589E692E060E070E047EB53E020E097
:100650000E94EB0C81E090E0A0E0B0E080933A05CE
:1006600090933B05A0933C05B0933D050E948B04FD
:1006700080E090E00F90CF91DF9108951F920F924C
:100680000FB60F920BB60F9211242F933F934F93F7
:100690005F936F937F938F939F93AF93BF93EF93EA
:1006A000FF938091220290E0019663E070E00E9447
:1006B0008510809322028130C9F0823099F0FF9139
:1006C000EF91BF91AF919F918F917F916F915F91CA
:1006D0004F913F912F910F900BBE0F900FBE0F9037
:1006E0001F90189585E00E94480DE9CF85E00E9493
:1006F0008C0DE5CF1F920F920FB60F920BB60F9293
:1007000011242F933F934F935F936F937F938F9316
:100710009F93AF93BF93EF93FF938091230290E059
:10072000019663E070E00E9485108093230281307F
:10073000C9F0823099F0FF91EF91BF91AF919F91F5
:100740008F917F916F915F914F913F912F910F907A
:100750000BBE0F900FBE0F901F90189584E00E9463
:10076000480DE9CF85E00E94480DE5CFFA0180836E
:100770003197892F992780831292129212921292A6
:100780001292129212921292129212921292129249
:100790001292129212921292129212921292129239
:1007A00012921292129212926293872F9927829339
:1007B000129212921292129212921292129280E855
:1007C00082933197CF01089508950895089508956B
:1007D0008091240290912502A0912602B0912702D7
:1007E0000097A105B105B1F08091FD059091FE053E
:1007F000A091FF05B0910006BC01CD012DE730E0CE
:1008000040E050E00E949810DC01CB010097A10568
:10081000B10509F008958EE290E00E947200FACFCF
:1008200008950895089508950E9410040E943606C0
:100830000E9457060E947E060E941A060E944B0CD8
:100840000E946A060E9474060E9411040895809115
:100850003F05813009F008958091FA058F3FD9F363
:100860008F5F8093FA05F7CF80913F05813009F0C3
:100870000895F8948091FA05882319F081508093A7
:10088000FA05882309F045C080913E05882309F0C8
:1008900040C08091F405E82FFF27E65EFE4F80817F
:1008A0008093F9059927FC01EB50FA4F2081E22F44
:1008B000FF27E65EFE4FE081880F991F880F991F82
:1008C000880F991FE80FE093440580914505E817CC
:1008D00001F1FF27EE0FFF1FEC57F84F8081918148
:1008E0009093F1058093F0058091C8059091C9051A
:1008F000A091CA05B091CB050196A11DB11D8093B1
:10090000C8059093C905A093CA05B093CB050E9472
:10091000C20F7894ADCF80913F05811108958091E9
:10092000F405E82FFF27E65EFE4F80819927FC0142
:10093000EB50FA4F2081E22FFF27E65EFE4F208129
:10094000880F991F880F991F880F991F280F2093D0
:10095000440520934505E22FFF27EE0FFF1FEC57BC
:10096000F84F808191819093F1058093F0059093E9
:10097000FC058093FB050E942B0FD0CF82E090E016
:100980000E94FE0DF89410924005109241051092BD
:1009900042051092430578948DE790E00E94FE0D89
:1009A000F8948091400590914105A0914205B09145
:1009B00043058093CC059093CD05A093CE05B093CD
:1009C000CF0581E08093830778940895CF93DF93D8
:1009D0000E94E803F8948091FD059091FE05A09196
:1009E000FF05B09100060196A11DB11D8093FD0584
:1009F0009093FE05A093FF05B09300067894809134
:100A00003F05813009F043C0A0914605B0914705EC
:100A10001D968C911D978C30D1F121E030E0F89437
:100A20001A968D919C911B97009709F101971A9640
:100A30008D939C931B97892BD1F41C968C911C97BA
:100A400083FD20C08091F40551969C915197892B8C
:100A50008093F4051F968C911F97E82FFF27EB508A
:100A6000FA4F808150969C915097892B80831296E3
:100A70000D90BC91A02D78941D968C911D978C3073
:100A800071F605C01A962D933C931B97F0CFDF911A
:100A9000CF9108958CEF90E00895EF92FF920F931D
:100AA0001F93CF93DF93EC018B01742F6981E62FA5
:100AB000FF27E65EFE4F8081482F5527FA01EE5E44
:100AC000FE4FE080DE01A40FB51F16963C911697ED
:100AD000E32FFF27E65EFE4F2081E22FFF27EE5E29
:100AE000FE4FF080CA01880F991F880F991F880F49
:100AF000991F280F8F2D8095832316968C9388231A
:100B000021F48E2D8095682369833327F901E20F44
:100B1000F31FEC57F84F0190F081E02D12861386F9
:100B200016821782008711877095848587238487B2
:100B3000882359F48091F4058E298093F405FA01F5
:100B4000EB50FA4F80818F298083C901DF91CF91CB
:100B50001F910F91FF90EF900895CF93DF93EC01D9
:100B6000A091FB05B091FC05FD01868397831F963C
:100B70008C911F97282F33272B503A4F50969C91DA
:100B800050979095F901808189238083882349F4C7
:100B900051969C91519790958091F405892380936B
:100BA000F4051F968C911F979E01280F311DF901A6
:100BB000868150969C91892BF9018683E091FB05F3
:100BC000F091FC0589819189892B8983DF91CF91EF
:100BD0000895CF93DF93EC01E091FB05F091FC05C4
:100BE0008785DE01A80FB11D9089909516968C918E
:100BF0001697892316968C93882349F4E091FB0578
:100C0000F091FC0591899095898189238983E091F0
:100C1000FB05F091FC051486E091FB05F091FC05C5
:100C200016821782DF91CF910895FC0111821682FE
:100C30001782089589E896E01092810690938606BF
:100C400080938506089740961092890690938E06A9
:100C500080938D06409710929106109296061092FE
:100C600095069093F8058093F70508951092FD0579
:100C70001092FE051092FF05109200061092FA05E0
:100C800010923E051092D30510923F051092C805B0
:100C90001092C9051092CA051092CB05109240051A
:100CA000109241051092420510924305089510924A
:100CB000F4051092F5051092F60510924505109274
:100CC00044051092F1051092F0051092FC05109267
:100CD000FB0508952CE040E856E060E070E08AEE05
:100CE00096E00E94EB0C08952BE047EC55E060E0A5
:100CF00070E082E097E00E94EB0C089510924705A7
:100D00001092460520E0E4E8F7E0119211922F5F7F
:100D10002D30D8F349E956E0FA01CA01429620E0A5
:100D200082839383729642962F5F2C30C8F3109281
:100D30007407109273075093D1054093D00508951E
:100D4000F8948091FA05882309F042C080913E050D
:100D50008823F1F58091F405E82FFF27E65EFE4F2A
:100D600080819927FC01EB50FA4F2081E22FFF2769
:100D7000E65EFE4FE081880F991F880F991F880F4C
:100D8000991FE80FE093440580914505E81701F1AC
:100D9000FF27EE0FFF1FEC57F84F80819181909352
:100DA000F1058093F0058091C8059091C905A09147
:100DB000CA05B091CB050196A11DB11D8093C80550
:100DC0009093C905A093CA05B093CB050E945F0F0D
:100DD00078940895F8948091400590914105A091F0
:100DE0004205B09143050196A11DB11D80934005B8
:100DF00090934105A0934205B093430578940E94D7
:100E00001204E8CFEF92FF920F931F93CF9380913C
:100E10008307882309F465C08091CC059091CD05A6
:100E2000A091CE05B091CF05BC01CD0124E630E004
:100E300040E050E00E94981079018A01C4E6F894DD
:100E40008091400590914105A0914205B0914305E4
:100E500080939E0790939F07A093A007B093A1074C
:100E60006091400570914105809142059091430544
:100E700010924005109241051092420510924305D0
:100E80007894E114F10401051105B1F0A80197016E
:100E90000E949810DA01C9012C2F281B27FD09C0D8
:100EA0002093D2050E94E7038DE790E00E94FE0D9B
:100EB000C6CF1092D205F6CF1092D2058091CC0504
:100EC0009091CD05A091CE05B091CF05BC01CD018B
:100ED00024E630E040E050E00E94981079018A0159
:100EE000E1CF8AEF90E00E94FE0D80918307882376
:100EF000C1F392CF1F93CF93DF93182FF894C09133
:100F0000D005D091D105209709F457C08A819B81E3
:100F10009093D1058093D0057894688379831D8759
:100F20001C861A861B86812F8695869586958F87C7
:100F3000E82FFF27EE5EFE4F8081898B812F87701F
:100F40008E87E82FFF27EE5EFE4F8081888B1E8202
:100F50001F8218861986CE010E941304CE010E94BA
:100F6000E403F894E12FFF27EE0FFF1FEC57F84F33
:100F7000C083D183E0914605F0914705EA83FB8366
:100F80001C821D82309711F0C483D583D09347050E
:100F9000C09346058091F4059989892B8093F405C7
:100FA0008F85E82FFF27EB50FA4F80819889892B96
:100FB0008083789480E090E003C0789486E490E0A9
:100FC000DF91CF911F910895CF93DF939C01809182
:100FD000FA058823D9F4F894C091F705D091F80563
:100FE000209731F08C819D819093F8058093F705CF
:100FF0007894209749F081E088831A821B822C83A1
:101000003D83CE010E941506CE0102C080E090E033
:10101000DF91CF910895DF92EF92FF920F931F938C
:10102000CF93DF938C017A01D090FA05DD2009F08F
:101030003BC0F894FC01C481D581209739F014821B
:1010400015827894F701D082CE0133C0E091FB0580
:10105000F091FC05848582608487E091FB05F09126
:10106000FC0562877387C8010E94AD0578940E94D1
:10107000A006F894E091FB05F091FC05C085D185B0
:10108000209751F010861186D486E091FB05F091EF
:10109000FC0516821782D5CFC8010E94E905789415
:1010A0008AE0F7018083D0CF82E0FA01808380E07C
:1010B00090E0DF91CF911F910F91FF90EF90DF9023
:1010C0000895FC01F8948181882361F484819581DD
:1010D000009721F46483758378940895789484E16B
:1010E00090E0089542E0CF010E944D0578940E945F
:1010F000A00680E090E00895CF93DF93DC01EB0140
:101100004091FA05442329F082E0888380E090E052
:1011100024C0F89412962D913C9113972F3F19F00B
:1011200078944883F3CF207012962D933C931397B5
:101130006091FB057091FC05FB0185859927282BA3
:10114000392B12962D933C93139714966D937C93A1
:1011500015977894488381E090E0DF91CF910895CE
:10116000FF920F931F93CF93DF938B01F090FA05BB
:10117000FF2009F03CC0F894282F3327F901E20F33
:10118000F31FEC57F84F408151814115510541F54E
:1011900081E090E080839183C091F705D091F805BC
:1011A0002097B9F08C819D819093F8058093F70585
:1011B000789484E08883922F88278F6F8A839B831B
:1011C0004C835D83CE010E941506F801F082CE01AA
:1011D00010C0C083D183789484E0FB018083F7CF73
:1011E000789488E2F801808380E090E002C08DE886
:1011F000F9CFDF91CF911F910F91FF900895FF924A
:101200000F931F93CF93DF93EC018A018091FA052E
:10121000882329F08CE8F8018083CE015AC0F89425
:101220008981882309F453C0B1E0FB2E772761152B
:10123000710589F16130710519F0789487E0EBCF81
:101240008823F9F4EB81FF27EE0FFF1FEC57F84FCF
:101250001082118218828091F7059091F8058C8395
:101260009D83D093F805C093F7057894F1E0FF16BD
:1012700029F0F801108280E090E02BC00E94A006C7
:10128000F8CF40E160E070E0CE010E944D05898119
:101290008823B9F7D7CFFF2019F0789488E0BBCF27
:1012A000EB81FF27EE0FFF1FEC57F84F6083718330
:1012B000F8828091F7059091F8058C839D83D093F7
:1012C000F805C093F7057894F801F082D4CFF82E92
:1012D000ADCFDF91CF911F910F91FF9008950F93A4
:1012E0001F93CF93DF93EC018A014091FA054423C9
:1012F00021F082E0F8018083B5C0F8949A819F3F85
:1013000009F49CC03B81AC81BD811D968C911D97D9
:10131000831709F451C0E091FB05F091FC05858528
:10132000891708F04DC01F968C911F97482F55279D
:101330004B505A4FFA01208150968C915097922F22
:10134000982309F479C080958223FA018083882349
:1013500049F451969C91519790958091F405892379
:101360008093F40521E01D963C931D97832F86956D
:10137000869586951F968C931F97E82FFF27EE5E24
:10138000FE4F908151969C935197832F87701E96A4
:101390008C931E97E82FFF27EE5EFE4F80815096BC
:1013A0008C935097213099F1E32FFF27EE0FFF1F09
:1013B000EC57F84FA083B183E091FB05F091FC0559
:1013C000848580618487E091FB05F091FC0562874C
:1013D0007387CE010E94AD0578940E94A006F89410
:1013E000E091FB05F091FC05848599279C01207113
:1013F000307084FD06C0268337837894F80110820C
:1014000031C0CE010E94E90578948AE073CF8091C3
:10141000F405892B8093F4051F968C911F97482F14
:1014200055274B505A4FFA01808150969C91509706
:10143000892BFA018083B8CF292F95CF2A813B8150
:1014400020702A833B83E091FB05F091FC058585A4
:101450009927282B392B2A833B83EC83FD837894AF
:10146000F8014083DF91CF911F910F910895CF93A1
:10147000DF93EC018091FA05882309F0B8C0F89455
:101480003B812A81A091FB05B091FC051D968C91B2
:101490001D97831719F0821709F0A5C01D968C912E
:1014A0001D978317A1F1E32FFF27EE0FFF1FEC57C6
:1014B000F84F81E090E0808391838981882359F4FB
:1014C0008A819B818F6F8A839B831C821D82789483
:1014D00080E090E08EC040E160E070E0CE010E94CC
:1014E0004D05282F8A819B818070E22FFF278E2B4C
:1014F0009F2B8A839B83EE0FFF1FEC57F84F808151
:1015000091818C839D8378940E94A006E1CF1F96E1
:101510008C911F97482F55274B505A4F50969C91AE
:1015200050979095FA01808189238083882349F41C
:1015300051969C91519790958091F40589238093C1
:10154000F4051D962C93E091FB05F091FC05822F8C
:101550008695869586958787A091FB05B091FC05B9
:101560001F968C911F97E82FFF27EE5EFE4F80811C
:1015700051968C93E091FB05F091FC05822F8770CA
:101580008687A091FB05B091FC051E968C911E9755
:10159000E82FFF27EE5EFE4F808150968C93A0913E
:1015A000FB05B091FC058091F40551969C915197F3
:1015B000892B8093F4051F968C911F97482F5527F0
:1015C0004B505A4FFA01808150969C915097892B2D
:1015D000FA018083E22FFF27EE0FFF1FEC57F84F31
:1015E000A083B18360CF789488E790E002C085E063
:1015F00090E0DF91CF910895CF93DF93DC01FB0161
:101600002091FA05222309F5F89412968D919C9168
:101610001397892F9927858312968C91129784832B
:101620008F3F81F0238311968C91119782831696B8
:101630008C911697808317968C918183789480E0A3
:1016400090E005C081E08383EECF86E090E0DF91FB
:10165000CF910895CF93DF939C018091FA05882361
:1016600009F047C0F894C091F705D091F80520978C
:1016700031F08C819D819093F8058093F7057894E3
:10168000209741F1F894E091F205F091F30530973D
:1016900019F1808191819093F3058093F2057894FC
:1016A00022833383CB01860F971F820F931F84837E
:1016B00095832683378320873187628773871486D3
:1016C000158682E088831A821B82EC83FD83CE011B
:1016D0000E941506CE010FC08091F7059091F80584
:1016E0008C839D83D093F805C093F7057894EF0120
:1016F000F1CF80E090E0DF91CF9108958F929F929B
:10170000BF92CF92DF92EF92FF920F931F93CF93EE
:10171000DF938C016A01B090FA05BB2009F063C029
:10172000F894FC01A481B5811C968D909C901D9726
:101730008114910431F11896ED91FC911997E19083
:10174000F1901896ED93FC931997089481089108ED
:101750001C968D929C921D9714968D919C91159735
:10176000E817F90729F07894F601B082C70140C064
:1017700012968D919C91139718968D939C9319971F
:10178000F2CFE091FB05F091FC05848584608487AD
:10179000E091FB05F091FC0562877387C8010E9408
:1017A000AD0578940E94A006F894E091FB05F091B5
:1017B000FC05E084F184E114F10469F080869186EF
:1017C000B486E091FB05F091FC05868297827894BF
:1017D000E601B882CBCFC8010E94E90578948AE07F
:1017E000F6018083C3CF82E0EA01888380E090E045
:1017F000DF91CF911F910F91FF90EF90DF90CF90ED
:10180000BF909F908F900895CF93DF93FC01F89441
:1018100081818823A9F5A481B5811C962D913C91E5
:101820001D971A968D919C911B972817390720F5C3
:101830001696ED91FC911797619371931696ED931F
:10184000FC9317972F5F3F4F1C962D933C931D974A
:1018500014968D919C911597E817F90721F07894CB
:1018600080E090E015C012968D919C91139716968A
:101870008D939C931797F3CF78948EE190E008C0F6
:1018800044E0CF010E944D0578940E94A006E8CF65
:10189000DF91CF91089582EE95E09093D5058093E6
:1018A000D4050E971092E3051092E2059093F3058C
:1018B0008093F2050895CF93DF939C018091FA0500
:1018C0008823D9F4F894C091F705D091F8052097B2
:1018D00031F08C819D819093F8058093F705789481
:1018E000209749F083E088832A833B831C821D82F2
:1018F000CE010E941506CE0102C080E090E0DF918B
:10190000CF910895FF920F931F93CF93DF93EC0134
:101910008A01F090FA05FF2021F082E0F80180832F
:1019200034C0F8948A819B81009739F001978A83AB
:101930009B837894F801F08228C0E091FB05F09138
:10194000FC05848581608487E091FB05F091FC05AE
:1019500062877387CE010E94AD0578940E94A0062D
:10196000F894E091FB05F091FC05848599279C0192
:101970002170307080FD03C026833783DACFCE011B
:101980000E94E90578948AE0C9CFDF91CF911F9139
:101990000F91FF900895FC01F8948181882389F4C8
:1019A000828193812FEF8F3F920739F001968283D6
:1019B0009383789480E090E00895789482E390E0B7
:1019C000089541E060E070E0CF010E944D057894F9
:1019D0000E94A006EFCF7F928F929F92AF92BF920C
:1019E000CF92DF92EF92FF920F931F93CF93DF93EB
:1019F000FC01722EF894822E9924880C991C84E89C
:101A000097E0880E991ED401CD91DC911197209713
:101A100071F581E090E08D939C9378949E01CF01C5
:101A20000E94B6035E016E01EE24FF2487019E0131
:101A3000AE01BC01872D0E947A07182F882389F4F4
:101A4000F8948091D3058F5F8093D305789480912B
:101A50003F05813019F0812F99270CC00E94A00604
:101A6000FACFF894F401C083D1837894F4CF7894BA
:101A700088E290E0DF91CF911F910F91FF90EF905E
:101A8000DF90CF90BF90AF909F908F907F90089500
:101A9000CF93DF93F894E82FFF27EE0FFF1FEC574B
:101AA000F84FA081B181109789F11C968C911C97F9
:101AB00083FF28C0877F1C968C931C97882331F462
:101AC0001A968D919C911B97892B21F0789480E038
:101AD00090E01FC08091F40551969C915197892BFD
:101AE0008093F4051F968C911F97E82FFF27EB50EA
:101AF000FA4F808150969C91892B808378940E9424
:101B0000A006E5CF789485E690E003C0789484E65B
:101B100090E0DF91CF910895CF93DF93982FF894C1
:101B20008F3F09F440C0E091FB05F091FC058585ED
:101B30009817B9F120E0E92FFF27EE0FFF1FEC57B0
:101B4000F84FA081B181109741F11F968C911F979A
:101B5000E82FFF27EB50FA4F50969C9150979095A5
:101B6000808189238083882349F451969C915197E1
:101B700090958091F40589238093F4051C968C91AF
:101B80001C9788601C968C937894213019F080E023
:101B900090E00FC00E94A006FACF78948AE590E00A
:101BA00008C021E0C8CFE091FB05F091FC059585C8
:101BB000F8CFDF91CF910895F8948F3FC9F0E82FC7
:101BC000FF27EE0FFF1FEC57F84F808191810097A0
:101BD00059F022E1DB01FC0101900D922A95E1F719
:101BE000789480E090E00895789489E290E00895F8
:101BF000E091FB05F091FC058585E1CFCF93DF9364
:101C00009C01892B29F1F894A091FB05B091FC056A
:101C10001F968C911F97E82FFF27EB50FA4F509695
:101C20009C9150979095808189238083882349F4E3
:101C300051969C91519790958091F40589238093BA
:101C4000F4051A962D933C931B9778940E94A00656
:101C5000DF91CF910895AF92BF92CF92DF92EF9232
:101C6000FF920F931F93CF93DF93A62ED42EE901FB
:101C7000882339F4662329F4442319F4232B09F427
:101C80007BC09BE39A1508F474C0ABE3AD1508F470
:101C90006DC0B3E0C83EDB0708F065C09927AA27EE
:101CA000BB27BC01CD0120E13EE040E050E00E94B6
:101CB0005A107B018C018A2D9927AA27BB27BC01CA
:101CC000CD012CE330E040E050E00E945A10DC01EE
:101CD000CB01E80EF91E0A1F1B1FED0CF11C011DA4
:101CE000111DC801B7012DE730E040E050E00E942F
:101CF0005A107B018C01CE01AA27BB27BC01CD0164
:101D00000E945A10DC01CB018C509E4FAF4FBF4F49
:101D1000BC01CD0128EE33E040E050E00E94981075
:101D2000E20EF31E041F151F5801CC24DD24E5012B
:101D30008FEF9FEFA0E0B0E0E822F9220A231B23F7
:101D4000C7010E94FE0DAB2819F480E090E016C098
:101D500080E090E80E94FE0D80E090E80E94FE0D79
:101D60002197B1F7F2CF83E590E008C082E590E0DB
:101D700005C081E590E002C084E590E0DF91CF915D
:101D80001F910F91FF90EF90DF90CF90BF90AF9099
:101D90000895CF93DF938C3008F03EC0F894E82F7D
:101DA000FF27EE0FFF1FEC57F84FA081B18110976E
:101DB00079F11A968D919C911B97892B29F11A968E
:101DC0001D921C921B971C968C911C9783FF04C03C
:101DD000789480E090E022C08091F40551969C9127
:101DE0005197892B8093F4051F968C911F97E82FAC
:101DF000FF27EB50FA4F808150969C91892B80836E
:101E000078940E94A006E5CF789480E590E006C023
:101E100078948BE090E002C08AE290E0DF91CF916D
:101E20000895F8948091FD059091FE05A091FF051D
:101E3000B09100067894BC01CD010895DC01CB017E
:101E4000F8948093FD059093FE05A093FF05B09351
:101E50000006789408950E94E60300913F050395DB
:101E600000933F05E091F005F091F105C191CDBFE0
:101E7000D191DEBF0F910FBF0F910BBFFF91EF917B
:101E8000DF91CF91BF91AF919F918F917F916F9192
:101E90005F914F913F912F911F910F91FF90EF9084
:101EA000DF90CF90BF90AF909F908F907F906F907A
:101EB0005F904F903F902F901F900F9008950F923A
:101EC0001F922F923F924F925F926F927F928F92CA
:101ED0009F92AF92BF92CF92DF92EF92FF920F93B9
:101EE0001F932F933F934F935F936F937F938F93A2
:101EF0009F93AF93BF93CF93DF93EF93FF930BB772
:101F00000F930FB70F93E091FB05F091FC05CDB750
:101F1000C193DEB7D1930E94E6030091440500937C
:101F20004505E091F005F091F105E093FB05F09394
:101F3000FC05C191CDBFD191DEBF0F910FBF0F91B5
:101F40000BBFFF91EF91DF91CF91BF91AF919F9127
:101F50008F917F916F915F914F913F912F911F9141
:101F60000F91FF90EF90DF90CF90BF90AF909F9038
:101F70008F907F906F905F904F903F902F901F9029
:101F80000F9008950E94E6030091440500934505D3
:101F9000E091F005F091F105E093FB05F093FC056D
:101FA000C191CDBFD191DEBF0F910FBF0F910BBF7C
:101FB000FF91EF91DF91CF91BF91AF919F918F9161
:101FC0007F916F915F914F913F912F911F910F9151
:101FD000FF90EF90DF90CF90BF90AF909F908F9049
:101FE0007F906F905F904F903F902F901F900F9039
:101FF00008950F921F922F923F924F925F926F928D
:102000007F928F929F92AF92BF92CF92DF92EF9288
:10201000FF920F931F932F933F934F935F936F9371
:102020007F938F939F93AF93BF93CF93DF93EF9360
:10203000FF930BB70F930FB700680F930091FA054A
:1020400003950093FA05013041F4CDB7DEB7E09176
:10205000FB05F091FC05C193D19303E802BF78948E
:102060000E94E60400000E9434040F910FBF0F91FC
:102070000BBFFF91EF91DF91CF91BF91AF919F91F6
:102080008F917F916F915F914F913F912F911F9110
:102090000F91FF90EF90DF90CF90BF90AF909F9007
:1020A0008F907F906F905F904F903F902F901F90F8
:1020B0000F900895629FD001739FF001829FE00D01
:1020C000F11D649FE00DF11D929FF00D839FF00DB7
:1020D000749FF00D659FF00D9927729FB00DE11D63
:1020E000F91F639FB00DE11DF91FBD01CF01112440
:1020F0000895991B79E004C0991F961708F0961B64
:10210000881F7A95C9F78095089597FB092E0726B1
:102110000AD077FD04D02ED006D000201AF4709596
:1021200061957F4F0895F6F7909581959F4F08959B
:10213000A1E21A2EAA1BBB1BFD010DC0AA1FBB1FCB
:10214000EE1FFF1FA217B307E407F50720F0A21B3D
:10215000B30BE40BF50B661F771F881F991F1A94AA
:1021600069F760957095809590959B01AC01BD01D4
:10217000CF010895AA1BBB1B51E107C0AA1FBB1FBB
:10218000A617B70710F0A61BB70B881F991F5A9503
:10219000A9F780959095BC01CD0108950F931F93E9
:1021A000DF93CF93CDB7DEB72E970FB6F894DEBF8F
:1021B0000FBECDBF0D891E8986E08C831A830983EB
:1021C0008FEF9FE79E838D839E01275E3F4FCE0159
:1021D00001966F89788DA9010E94FF102F813885A3
:1021E000020F131FF80110822E960FB6F894DEBF6F
:1021F0000FBECDBFCF91DF911F910F9108952F9208
:102200003F924F925F926F927F928F929F92AF9286
:10221000BF92CF92DF92EF92FF920F931F93DF93C3
:10222000CF93CDB7DEB72B970FB6F894DEBF0FBEB6
:10223000CDBF3C012B015A01FC011782168283811C
:1022400081FD03C06FEF7FEFC6C19AE0892E1E01AA
:102250000894211C311CF3012381F20123FD859197
:1022600023FF81912F01882309F4B2C1853239F40B
:1022700023FD859123FF81912F01853229F490E080
:10228000B3010E941B13E7CF982FFF24EE2499245B
:10229000FFE1FF15D0F09B3269F09C3228F49032B8
:1022A00059F0933291F40EC09D3249F0903369F4A5
:1022B00041E024C052E0F52A84E0F82A28C098E0E2
:1022C000F92A25C0E0E1FE2A22C0F7FC29C0892FA7
:1022D00080538A3070F4F6FE05C0989C902C11242F
:1022E000980E15C0E89CE02C1124E80EF0E2FF2ABD
:1022F0000EC09E3229F4F6FC6BC140E4F42A07C0FC
:102300009C3619F450E8F52A02C0983649F4F201D7
:1023100023FD959123FF91912F01992309F0B8CFC7
:10232000892F8554833018F08052833038F444E08C
:1023300050E0A40EB51E5FE359830FC0933631F011
:10234000933779F0933509F056C020C0F5018081AC
:10235000898342E050E0A40EB51E610101E010E067
:1023600012C0F501C080D180F6FC03C06FEF7FEF93
:1023700002C0692D70E042E050E0A40EB51EC60117
:102380000E9410138C015FE7F52214C0F501C08094
:10239000D180F6FC03C06FEF7FEF02C0692D70E0C3
:1023A00042E050E0A40EB51EC6010E9405138C0148
:1023B00050E8F52AF3FE07C01AC080E290E0B301AE
:1023C0000E941B13EA948E2D90E008171907A8F3BA
:1023D0000EC0F601F7FC8591F7FE81916F0190E048
:1023E000B3010E941B13E110EA9401501040011543
:1023F000110579F7EAC0943611F0993669F5F7FEC0
:1024000008C0F501208131814281538184E090E050
:102410000AC0F501808191819C01442737FD4095D8
:10242000542F82E090E0A80EB91E9FE6F92257FFD4
:1024300009C050954095309521953F4F4F4F5F4FC4
:10244000E0E8FE2ACA01B901A1012AE030E00E94B9
:102450004713D82ED21840C0953729F41F2D1F7E60
:102460002AE030E01DC01F2D197F9F3661F09037A4
:1024700020F4983509F0ACC00FC0903739F0983788
:1024800009F0A6C004C028E030E00AC0106114FDC5
:10249000146020E130E004C014FD166020E132E059
:1024A00017FF08C0F501608171818281938144E04A
:1024B00050E008C0F50180819181BC0180E090E08E
:1024C00042E050E0A40EB51EA1010E944713D82E91
:1024D000D2188FE7F82EF122F6FE0BC05EEFF52240
:1024E000D91438F4F4FE07C0F2FC05C08FEEF822D0
:1024F00002C01D2D01C0192DF4FE0DC0FE01ED0D11
:10250000F11D8081803319F499EEF92208C01F5F14
:10251000F2FE05C003C08F2D867809F01F5F0F2DD6
:10252000F3FC14C0F0FE0FC01E1510F09D2C0BC064
:102530009D2C9E0C911A1E2D06C080E290E0B301E6
:102540000E941B131F5F1E15C0F304C01E1510F45C
:10255000E11A01C0EE2404FF0FC080E390E0B30154
:102560000E941B1302FF1DC001FD03C088E790E01D
:102570000EC088E590E00BC0802F867891F001FFB7
:1025800002C08BE201C080E2F7FC8DE290E0B30173
:102590000E941B1306C080E390E0B3010E941B134E
:1025A0009A94D914C0F3DA94F101ED0DF11D8081F4
:1025B00090E0B3010E941B13DD20A9F706C080E262
:1025C00090E0B3010E941B13EA94EE20C1F743CEC2
:1025D000F30166817781CB012B960FB6F894DEBFAD
:1025E0000FBECDBFCF91DF911F910F91FF90EF9064
:1025F000DF90CF90BF90AF909F908F907F906F9023
:102600005F904F903F902F900895FC01059061508E
:1026100070400110D8F7809590958E0F9F1F0895F8
:10262000FC016150704001900110D8F780959095A1
:102630008E0F9F1F08950F931F93CF93DF938C01ED
:10264000EB018B8181FF1BC082FF0DC02E813F817A
:102650008C819D812817390764F4E881F981019301
:10266000F983E88306C0E885F985802F0995892BD1
:1026700031F48E819F8101969F838E8302C00FEF7C
:102680001FEFC801DF91CF911F910F910895FA01BB
:10269000AA27283051F1203181F1E8946F936E7FA1
:1026A0006E5F7F4F8F4F9F4FAF4FB1E03ED0B4E092
:1026B0003CD0670F781F891F9A1FA11D680F791FD3
:1026C0008A1F911DA11D6A0F711D811D911DA11DE4
:1026D00020D009F468943F912AE0269F11243019F4
:1026E000305D3193DEF6CF010895462F4770405D8F
:1026F0004193B3E00FD0C9F7F6CF462F4F70405D3E
:102700004A3318F0495D31FD4052419302D0A9F798
:10271000EACFB4E0A6959795879577956795BA9592
:10272000C9F700976105710508959B01AC010A2E58
:1027300006945795479537952795BA95C9F7620F2F
:0E274000731F841F951FA01D0895F894FFCFEE
:10274E002020256420202564202025640054494D36
:10275E004500010204081020408000000100020024
:10276E00010003000100020001000400010002004C
:10277E00010003000100020001000500010002003B
:10278E00010003000100020001000400010002002C
:10279E00010003000100020001000600010002001A
:1027AE00010003000100020001000400010002000C
:1027BE0001000300010002000100050001000200FB
:1027CE0001000300010002000100040001000200EC
:1027DE0001000300010002000100070001000200D9
:1027EE0001000300010002000100040001000200CC
:1027FE0001000300010002000100050001000200BB
:10280E0001000300010002000100040001000200AB
:10281E000100030001000200010006000100020099
:10282E00010003000100020001000400010002008B
:10283E00010003000100020001000500010002007A
:10284E00010003000100020001000400010002006B
:0A285E000100030001000200010068
:00000001FF
